:020000040000fa
:080000000002040000000000f2
:020000040000fa
:040008007a03000077
:020000040000fa
:04000c005803000095
:020000040000fa
:040010006a0300007f
:020000040000fa
:040014006003000085
:020000040000fa
:04001800720300006f
:020000040000fa
:04001c007a03000063
:020000040000fa
:040020007a0300005f
:020000040000fa
:040024007a0300005b
:020000040000fa
:040028007a03000057
:020000040000fa
:04002c007a03000053
:020000040000fa
:040030007a0300004f
:020000040000fa
:0400340004030000c1
:020000040000fa
:040038007a03000047
:020000040000fa
:04003c007a03000043
:020000040000fa
:040040007a0300003f
:020000040000fa
:040044007a0300003b
:020000040000fa
:040048007a03000037
:020000040000fa
:04004c007a03000033
:020000040000fa
:040050007a0300002f
:020000040000fa
:040054007a0300002b
:020000040000fa
:040058007a03000027
:020000040000fa
:04005c007a03000023
:020000040000fa
:040060007a0300001f
:020000040000fa
:040064007a0300001b
:020000040000fa
:040068007a03000017
:020000040000fa
:04006c007a03000013
:020000040000fa
:040070007a0300000f
:020000040000fa
:040074003203000053
:020000040000fa
:040078007a03000007
:020000040000fa
:04007c007a03000003
:020000040000fa
:040080007a030000ff
:020000040000fa
:040084007a030000fb
:020000040000fa
:040088007a030000f7
:020000040000fa
:04008c007a030000f3
:020000040000fa
:040090007a030000ef
:020000040000fa
:040094007a030000eb
:020000040000fa
:040098007a030000e7
:020000040000fa
:04009c007a030000e3
:020000040000fa
:0400a0007a030000df
:020000040000fa
:0400a4007a030000db
:020000040000fa
:0400a8007a030000d7
:020000040000fa
:0400ac007a030000d3
:020000040000fa
:0400b0007a030000cf
:020000040000fa
:0400b4007a030000cb
:020000040000fa
:0400b8007a030000c7
:020000040000fa
:0400bc007a030000c3
:020000040000fa
:0400c0007a030000bf
:020000040000fa
:0400c4007a030000bb
:020000040000fa
:0400c8007a030000b7
:020000040000fa
:0400cc007a030000b3
:020000040000fa
:0400d0007a030000af
:020000040000fa
:0400d4007a030000ab
:020000040000fa
:0400d8007a030000a7
:020000040000fa
:0400dc007a030000a3
:020000040000fa
:0400e0007a0300009f
:020000040000fa
:0400e4007a0300009b
:020000040000fa
:0400e8007a03000097
:020000040000fa
:0400ec007a03000093
:020000040000fa
:0400f0007a0300008f
:020000040000fa
:0400f4007a0300008b
:020000040000fa
:0400f8007a03000087
:020000040000fa
:0400fc007a03000083
:020000040000fa
:040100007a0300007e
:020000040000fa
:040104007a0300007a
:020000040000fa
:040108007a03000076
:020000040000fa
:04010c007a03000072
:020000040000fa
:040110007a0300006e
:020000040000fa
:040114007a0300006a
:020000040000fa
:040118007a03000066
:020000040000fa
:04011c007a03000062
:020000040000fa
:040120007a0300005e
:020000040000fa
:040124007a0300005a
:020000040000fa
:040128007a03000056
:020000040000fa
:04012c007a03000052
:020000040000fa
:040130007a0300004e
:020000040000fa
:040134007a0300004a
:020000040000fa
:040138007a03000046
:020000040000fa
:04013c007a03000042
:020000040000fa
:040140007a0300003e
:020000040000fa
:040144007a0300003a
:020000040000fa
:040148007a03000036
:020000040000fa
:04014c007a03000032
:020000040000fa
:040150007a0300002e
:020000040000fa
:040154007a0300002a
:020000040000fa
:040158007a03000026
:020000040000fa
:04015c007a03000022
:020000040000fa
:040160007a0300001e
:020000040000fa
:040164007a0300001a
:020000040000fa
:040168007a03000016
:020000040000fa
:04016c007a03000012
:020000040000fa
:040170007a0300000e
:020000040000fa
:040174007a0300000a
:020000040000fa
:040178007a03000006
:020000040000fa
:04017c007a03000002
:020000040000fa
:040180007a030000fe
:020000040000fa
:040184007a030000fa
:020000040000fa
:040188007a030000f6
:020000040000fa
:04018c007a030000f2
:020000040000fa
:040190007a030000ee
:020000040000fa
:040194007a030000ea
:020000040000fa
:040198007a030000e6
:020000040000fa
:04019c007a030000e2
:020000040000fa
:0401a0007a030000de
:020000040000fa
:0401a4007a030000da
:020000040000fa
:0401a8007a030000d6
:020000040000fa
:0401ac007a030000d2
:020000040000fa
:0401b0007a030000ce
:020000040000fa
:0401b4007a030000ca
:020000040000fa
:0401b8007a030000c6
:020000040000fa
:0401bc007a030000c2
:020000040000fa
:0401c0007a030000be
:020000040000fa
:0401c4007a030000ba
:020000040000fa
:0401c8007a030000b6
:020000040000fa
:0401cc007a030000b2
:020000040000fa
:0401d0007a030000ae
:020000040000fa
:0401d4007a030000aa
:020000040000fa
:0401d8007a030000a6
:020000040000fa
:0401dc007a030000a2
:020000040000fa
:0401e0007a0300009e
:020000040000fa
:0401e4007a0300009a
:020000040000fa
:0401e8007a03000096
:020000040000fa
:0401ec007a03000092
:020000040000fa
:0401f0007a0300008e
:020000040000fa
:0401f4007a0300008a
:020000040000fa
:0401f8007a03000086
:020000040000fa
:0401fc007a03000082
:020000040000fa
:040208007a03000075
:020000040000fa
:04020c007a03000071
:020000040000fa
:040210007a0300006d
:020000040000fa
:040214007a03000069
:020000040000fa
:040218007a03000065
:020000040000fa
:04021c007a03000061
:020000040000fa
:040220007a0300005d
:020000040000fa
:040224007a03000059
:020000040000fa
:040228007a03000055
:020000040000fa
:04022c007a03000051
:020000040000fa
:040230007a0300004d
:020000040000fa
:040234007a03000049
:020000040000fa
:040238007a03000045
:020000040000fa
:04023c007a03000041
:020000040000fa
:040240007a0300003d
:020000040000fa
:040244007a03000039
:020000040000fa
:040248007a03000035
:020000040000fa
:04024c007a03000031
:020000040000fa
:040250007a0300002d
:020000040000fa
:040254007a03000029
:020000040000fa
:040258007a03000025
:020000040000fa
:04025c007a03000021
:020000040000fa
:040260007a0300001d
:020000040000fa
:040264007a03000019
:020000040000fa
:040268007a03000015
:020000040000fa
:04026c007a03000011
:020000040000fa
:040270007a0300000d
:020000040000fa
:040274007a03000009
:020000040000fa
:040278007a03000005
:020000040000fa
:04027c007a03000001
:020000040000fa
:040280007a030000fd
:020000040000fa
:040284007a030000f9
:020000040000fa
:040288007a030000f5
:020000040000fa
:04028c007a030000f1
:020000040000fa
:040290007a030000ed
:020000040000fa
:040294007a030000e9
:020000040000fa
:040298007a030000e5
:020000040000fa
:04029c007a030000e1
:020000040000fa
:0402a0007a030000dd
:020000040000fa
:0402a4007a030000d9
:020000040000fa
:0402a8007a030000d5
:020000040000fa
:0402ac007a030000d1
:020000040000fa
:0402b0007a030000cd
:020000040000fa
:0402b4007a030000c9
:020000040000fa
:0402b8007a030000c5
:020000040000fa
:0402bc007a030000c1
:020000040000fa
:0402c0007a030000bd
:020000040000fa
:0402c4007a030000b9
:020000040000fa
:0402c8007a030000b5
:020000040000fa
:0402cc007a030000b1
:020000040000fa
:0402d0007a030000ad
:020000040000fa
:0402d4007a030000a9
:020000040000fa
:0402d8007a030000a5
:020000040000fa
:0402dc007a030000a1
:020000040000fa
:0402e0007a0300009d
:020000040000fa
:0402e4007a03000099
:020000040000fa
:0402e8007a03000095
:020000040000fa
:0402ec007a03000091
:020000040000fa
:0402f0007a0300008d
:020000040000fa
:0402f4007a03000089
:020000040000fa
:0402f8007a03000085
:020000040000fa
:0402fc007a03000081
:020000040000fa
:040300007a0300007c
:020000040000fa
:040304007a03000078
:020000040000fa
:040308007a03000074
:020000040000fa
:04030c007a03000070
:020000040000fa
:040310007a0300006c
:020000040000fa
:040314007a03000068
:020000040000fa
:040318007a03000064
:020000040000fa
:04031c007a03000060
:020000040000fa
:040320007a0300005c
:020000040000fa
:040324007a03000058
:020000040000fa
:040328007a03000054
:020000040000fa
:04032c007a03000050
:020000040000fa
:040330007a0300004c
:020000040000fa
:040334007a03000048
:020000040000fa
:040338007a03000044
:020000040000fa
:04033c007a03000040
:020000040000fa
:040340007a0300003c
:020000040000fa
:040344007a03000038
:020000040000fa
:040348007a03000034
:020000040000fa
:04034c007a03000030
:020000040000fa
:040350007a0300002c
:020000040000fa
:040354007a03000028
:020000040000fa
:040358007a03000024
:020000040000fa
:04035c007a03000020
:020000040000fa
:040360007a0300001c
:020000040000fa
:040364007a03000018
:020000040000fa
:040368007a03000014
:020000040000fa
:04036c007a03000010
:020000040000fa
:040370007a0300000c
:020000040000fa
:040374007a03000008
:020000040000fa
:040378007a03000004
:020000040000fa
:04037c007a03000000
:020000040000fa
:040380007a030000fc
:020000040000fa
:040384007a030000f8
:020000040000fa
:040388007a030000f4
:020000040000fa
:04038c007a030000f0
:020000040000fa
:040390007a030000ec
:020000040000fa
:040394007a030000e8
:020000040000fa
:040398007a030000e4
:020000040000fa
:04039c007a030000e0
:020000040000fa
:0403a0007a030000dc
:020000040000fa
:0403a4007a030000d8
:020000040000fa
:0403a8007a030000d4
:020000040000fa
:0403ac007a030000d0
:020000040000fa
:0403b0007a030000cc
:020000040000fa
:0403b4007a030000c8
:020000040000fa
:0403b8007a030000c4
:020000040000fa
:0403bc007a030000c0
:020000040000fa
:0403c0007a030000bc
:020000040000fa
:0403c4007a030000b8
:020000040000fa
:0403c8007a030000b4
:020000040000fa
:0403cc007a030000b0
:020000040000fa
:0403d0007a030000ac
:020000040000fa
:0403d4007a030000a8
:020000040000fa
:0403d8007a030000a4
:020000040000fa
:0403dc007a030000a0
:020000040000fa
:0403e0007a0300009c
:020000040000fa
:0403e4007a03000098
:020000040000fa
:0403e8007a03000094
:020000040000fa
:0403ec007a03000090
:020000040000fa
:0403f0007a0300008c
:020000040000fa
:0403f4007a03000088
:020000040000fa
:0403f8007a03000084
:020000040000fa
:0403fc007a03000080
:020000040000fa
:100400008f8220000e7f22000e0188000000000075
:10041000000020000000e000020032000001200087
:100420002002880014000700b40007000000e0006c
:1004300003003a00c04d20000100200002003700f8
:100440000000200001002000810f70000100320038
:1004500014000700000020000000e000020032004d
:1004600000000200000000003c0502000000000047
:100470000040da000000fe004440a90020002000f7
:100480000000e0000300320010002000900188000e
:100490004440a800000006008a1f78008b1f7800e7
:1004a00000000600a1028800800478000000eb0034
:1004b0001f003700e284440054a0b4009905ba003c
:1004c000e284440054a0b4009906ba00e2844400d7
:1004d00054a0b4000006eb00476fde00fd07b20039
:1004e000ae018800636ce10003003a00eaff0700f8
:1004f0000000eb000e003700606ce10008003a00dd
:10050000004deb000a05e800020039003420ec0041
:100510000af0a0008b05e900f9ff3e000400370057
:100520006168e100010032000086eb000b0007006b
:1005300019c7ba001905ba000e04e00003003a001a
:100540000a00e000dbff3a0000000600fe07b200f0
:10055000ae0288008a047800f5ff37000cd0a300b3
:10056000e20f4d001c00390089027800354dba00b9
:100570000a05e800020039003420ec000af0a0006f
:100580008b05e9000f003200254dba000a05e8008e
:10059000020039003420ec000af0a0008b05e900cd
:1005a000080032000c00e0000600320015cdba0051
:1005b0000a05e800020039003420ec000af0a0002f
:1005c0008b05e9008984e80054a0b4000b00e0002a
:1005d000e2ff3a00000006009902ba00055d7800cb
:1005e0008b05e900f7ff3200c82ade00055d7800c0
:1005f0008b05e900f3ff32000c00e000f1ff320050
:1006000019ddba00eeff37003600f800809fbe000b
:10061000829fbe00849fbe00869fbe000000fa003d
:100620005e00070070822000104078008040e800e3
:1006300070822000014878006082200011c0b30061
:10064000014878008460a9000080fa004f03be00d2
:100650004f02be004f01be004f00be003600f90041
:1006600000400600801f78000000fa00300480007f
:10067000680060000000e0000a00320010408000c6
:100680000000e000030032008541a9000228ef00cd
:10069000030037008541a8001000200010408800aa
:1006a0008660a9000080fa004f0078000040060034
:1006b0003600f8008020a9000000eb00dc000700f5
:1006c0003600f800de0007008040a900100020007e
:1006d000d70007003600f8008060a9002000200045
:1006e000d30007003600f8008080a9003000200009
:1006f000cf0007000040da000000fe000000050007
:020000040000fa
:100700000000fa004c22ef000080eb00701288001d
:1007100000032800801288008460a9009460a8006b
:10072000608220008040eb00014878000080fa00e1
:10073000000006000200fa00000f78009e0078001a
:1007400071128800608220008040eb000148780030
:100750000080fa00000006000000fa00701280001d
:100760000080fa00000006000200fa00000f780086
:100770009e00780061128800608220008040eb00bb
:10078000014878000080fa00000006000000fa002e
:10079000601280000080fa00000006000000fa00ed
:1007a000004080000000e000030032008521a90025
:1007b0000028ef00030037008521a800100020006a
:1007c000004088000080fa00000006000000fa00e7
:1007d000608220008040eb00014878009460a8000f
:1007e00051e2a8000080fa00000006000000fa00b4
:1007f00051e2a9009460a9000080fa000000060000
:100800000200fa0060822000104f78001e4078003d
:100810000004e00003003200608220008040eb0012
:10082000014878001e4078000080fa0000000600b1
:100830000000fa0070822000104078000080fb0069
:100840000080fa00000006000000fa00708220001c
:100850008040eb00014878000080fa0000000600ac
:100860000000fa008421ef008e21ef009821ef00b4
:1008700070192000000c88000080eb00500c8800ec
:10088000f03f2000a00c88005620ef005820ef0019
:100890005a20ef006e20ef007020ef007220ef0072
:1008a0008621ef009021ef009a21ef0070002000d8
:1008b000400c8800c0202f00900c880070002000a1
:1008c000e00c88006480a8006460a8009660a8001e
:1008d0000080fa00000006000000fa00000023007b
:1008e000100888000621ef006821ef006a21ef0060
:1008f0006c21ef001200200080072000a1092000d9
:1009000013102000804978008149780082497800de
:100910001200200060042000710520000310200058
:100920008049780081497800824978000000000001
:1009300000088000610060000000e000fcff3a0059
:100940000080fa00000006000000fa00000023000a
:10095000100888000621ef006821ef006a21ef00ef
:100960006c21ef001200200080072000a109200068
:10097000131020008049780081497800824978006e
:1009800012002000600420007105200003102000e8
:100990008049780081497800824978000000000091
:1009a00000088000610060000000e000fcff3a00e9
:0809b0000080fa0000000600bf
:020000040000fa
:1009b8002608000002000000800000000008000077
:1009c8000200000080000000020800000200000091
:1009d80080000000060800002000000080000000e1
:1009e800040800000200000082000000ffff000071
:0409f80000000000fb
:020000040000fa
:1009fc000000fa0061058000f0ff28000080600014
:100a0c0000c0a0006005880021058000f0ff2800d0
:100a1c000080600000c0a000200588000080fa0063
:100a2c0000000600000f78009e007800214088002e
:100a3c00ffff37000000fa0060802000800778007c
:100a4c00e0812000000188000080fa000000060010
:100a5c000000fa007fff07009cff0700e4ff07007f
:100a6c0024ff07000080fa00000006000000fa00d6
:080a7c00f7ff0700ffff370040
:020000040000fa
:020000040002f8
:04aff000fff300006b
:020000040000fa
:020000040002f8
:04aff400fff6000064
:020000040000fa
:020000040002f8
:04aff8007fb0000026
:020000040000fa
:020000040002f8
:04affc003f3f0000d3
:00000001FF
