:020000040000fa
:080000000002040000000000f2
:020000040000fa
:04000800d60300001b
:020000040000fa
:04000c005803000095
:020000040000fa
:040010006a0300007f
:020000040000fa
:040014006003000085
:020000040000fa
:04001800720300006f
:020000040000fa
:04001c00d603000007
:020000040000fa
:04002000d603000003
:020000040000fa
:04002400d6030000ff
:020000040000fa
:04002800d6030000fb
:020000040000fa
:04002c00d6030000f7
:020000040000fa
:04003000d6030000f3
:020000040000fa
:0400340004030000c1
:020000040000fa
:04003800d6030000eb
:020000040000fa
:04003c00d6030000e7
:020000040000fa
:04004000d6030000e3
:020000040000fa
:040044007a0300003b
:020000040000fa
:04004800a803000009
:020000040000fa
:04004c00d6030000d7
:020000040000fa
:04005000d6030000d3
:020000040000fa
:04005400d6030000cf
:020000040000fa
:04005800d6030000cb
:020000040000fa
:04005c00d6030000c7
:020000040000fa
:04006000d6030000c3
:020000040000fa
:04006400d6030000bf
:020000040000fa
:04006800d6030000bb
:020000040000fa
:04006c00d6030000b7
:020000040000fa
:04007000d6030000b3
:020000040000fa
:040074003203000053
:020000040000fa
:04007800d6030000ab
:020000040000fa
:04007c00d6030000a7
:020000040000fa
:04008000d6030000a3
:020000040000fa
:04008400d60300009f
:020000040000fa
:04008800d60300009b
:020000040000fa
:04008c00d603000097
:020000040000fa
:04009000d603000093
:020000040000fa
:04009400d60300008f
:020000040000fa
:04009800d60300008b
:020000040000fa
:04009c00d603000087
:020000040000fa
:0400a000d603000083
:020000040000fa
:0400a400d60300007f
:020000040000fa
:0400a800d60300007b
:020000040000fa
:0400ac00d603000077
:020000040000fa
:0400b000d603000073
:020000040000fa
:0400b400d60300006f
:020000040000fa
:0400b800d60300006b
:020000040000fa
:0400bc00d603000067
:020000040000fa
:0400c000d603000063
:020000040000fa
:0400c400d60300005f
:020000040000fa
:0400c800d60300005b
:020000040000fa
:0400cc00d603000057
:020000040000fa
:0400d000d603000053
:020000040000fa
:0400d400d60300004f
:020000040000fa
:0400d800d60300004b
:020000040000fa
:0400dc00d603000047
:020000040000fa
:0400e000d603000043
:020000040000fa
:0400e400d60300003f
:020000040000fa
:0400e800d60300003b
:020000040000fa
:0400ec00d603000037
:020000040000fa
:0400f000d603000033
:020000040000fa
:0400f400d60300002f
:020000040000fa
:0400f800d60300002b
:020000040000fa
:0400fc00d603000027
:020000040000fa
:04010000d603000022
:020000040000fa
:04010400d60300001e
:020000040000fa
:04010800d60300001a
:020000040000fa
:04010c00d603000016
:020000040000fa
:04011000d603000012
:020000040000fa
:04011400d60300000e
:020000040000fa
:04011800d60300000a
:020000040000fa
:04011c00d603000006
:020000040000fa
:04012000d603000002
:020000040000fa
:04012400d6030000fe
:020000040000fa
:04012800d6030000fa
:020000040000fa
:04012c00d6030000f6
:020000040000fa
:04013000d6030000f2
:020000040000fa
:04013400d6030000ee
:020000040000fa
:04013800d6030000ea
:020000040000fa
:04013c00d6030000e6
:020000040000fa
:04014000d6030000e2
:020000040000fa
:04014400d6030000de
:020000040000fa
:04014800d6030000da
:020000040000fa
:04014c00d6030000d6
:020000040000fa
:04015000d6030000d2
:020000040000fa
:04015400d6030000ce
:020000040000fa
:04015800d6030000ca
:020000040000fa
:04015c00d6030000c6
:020000040000fa
:04016000d6030000c2
:020000040000fa
:04016400d6030000be
:020000040000fa
:04016800d6030000ba
:020000040000fa
:04016c00d6030000b6
:020000040000fa
:04017000d6030000b2
:020000040000fa
:04017400d6030000ae
:020000040000fa
:04017800d6030000aa
:020000040000fa
:04017c00d6030000a6
:020000040000fa
:04018000d6030000a2
:020000040000fa
:04018400d60300009e
:020000040000fa
:04018800d60300009a
:020000040000fa
:04018c00d603000096
:020000040000fa
:04019000d603000092
:020000040000fa
:04019400d60300008e
:020000040000fa
:04019800d60300008a
:020000040000fa
:04019c00d603000086
:020000040000fa
:0401a000d603000082
:020000040000fa
:0401a400d60300007e
:020000040000fa
:0401a800d60300007a
:020000040000fa
:0401ac00d603000076
:020000040000fa
:0401b000d603000072
:020000040000fa
:0401b400d60300006e
:020000040000fa
:0401b800d60300006a
:020000040000fa
:0401bc00d603000066
:020000040000fa
:0401c000d603000062
:020000040000fa
:0401c400d60300005e
:020000040000fa
:0401c800d60300005a
:020000040000fa
:0401cc00d603000056
:020000040000fa
:0401d000d603000052
:020000040000fa
:0401d400d60300004e
:020000040000fa
:0401d800d60300004a
:020000040000fa
:0401dc00d603000046
:020000040000fa
:0401e000d603000042
:020000040000fa
:0401e400d60300003e
:020000040000fa
:0401e800d60300003a
:020000040000fa
:0401ec00d603000036
:020000040000fa
:0401f000d603000032
:020000040000fa
:0401f400d60300002e
:020000040000fa
:0401f800d60300002a
:020000040000fa
:0401fc00d603000026
:020000040000fa
:04020800d603000019
:020000040000fa
:04020c00d603000015
:020000040000fa
:04021000d603000011
:020000040000fa
:04021400d60300000d
:020000040000fa
:04021800d603000009
:020000040000fa
:04021c00d603000005
:020000040000fa
:04022000d603000001
:020000040000fa
:04022400d6030000fd
:020000040000fa
:04022800d6030000f9
:020000040000fa
:04022c00d6030000f5
:020000040000fa
:04023000d6030000f1
:020000040000fa
:04023400d6030000ed
:020000040000fa
:04023800d6030000e9
:020000040000fa
:04023c00d6030000e5
:020000040000fa
:04024000d6030000e1
:020000040000fa
:04024400d6030000dd
:020000040000fa
:04024800d6030000d9
:020000040000fa
:04024c00d6030000d5
:020000040000fa
:04025000d6030000d1
:020000040000fa
:04025400d6030000cd
:020000040000fa
:04025800d6030000c9
:020000040000fa
:04025c00d6030000c5
:020000040000fa
:04026000d6030000c1
:020000040000fa
:04026400d6030000bd
:020000040000fa
:04026800d6030000b9
:020000040000fa
:04026c00d6030000b5
:020000040000fa
:04027000d6030000b1
:020000040000fa
:04027400d6030000ad
:020000040000fa
:04027800d6030000a9
:020000040000fa
:04027c00d6030000a5
:020000040000fa
:04028000d6030000a1
:020000040000fa
:04028400d60300009d
:020000040000fa
:04028800d603000099
:020000040000fa
:04028c00d603000095
:020000040000fa
:04029000d603000091
:020000040000fa
:04029400d60300008d
:020000040000fa
:04029800d603000089
:020000040000fa
:04029c00d603000085
:020000040000fa
:0402a000d603000081
:020000040000fa
:0402a400d60300007d
:020000040000fa
:0402a800d603000079
:020000040000fa
:0402ac00d603000075
:020000040000fa
:0402b000d603000071
:020000040000fa
:0402b400d60300006d
:020000040000fa
:0402b800d603000069
:020000040000fa
:0402bc00d603000065
:020000040000fa
:0402c000d603000061
:020000040000fa
:0402c400d60300005d
:020000040000fa
:0402c800d603000059
:020000040000fa
:0402cc00d603000055
:020000040000fa
:0402d000d603000051
:020000040000fa
:0402d400d60300004d
:020000040000fa
:0402d800d603000049
:020000040000fa
:0402dc00d603000045
:020000040000fa
:0402e000d603000041
:020000040000fa
:0402e400d60300003d
:020000040000fa
:0402e800d603000039
:020000040000fa
:0402ec00d603000035
:020000040000fa
:0402f000d603000031
:020000040000fa
:0402f400d60300002d
:020000040000fa
:0402f800d603000029
:020000040000fa
:0402fc00d603000025
:020000040000fa
:04030000d603000020
:020000040000fa
:04030400d60300001c
:020000040000fa
:04030800d603000018
:020000040000fa
:04030c00d603000014
:020000040000fa
:04031000d603000010
:020000040000fa
:04031400d60300000c
:020000040000fa
:04031800d603000008
:020000040000fa
:04031c00d603000004
:020000040000fa
:04032000d603000000
:020000040000fa
:04032400d6030000fc
:020000040000fa
:04032800d6030000f8
:020000040000fa
:04032c00d6030000f4
:020000040000fa
:04033000d6030000f0
:020000040000fa
:04033400d6030000ec
:020000040000fa
:04033800d6030000e8
:020000040000fa
:04033c00d6030000e4
:020000040000fa
:04034000d6030000e0
:020000040000fa
:04034400d6030000dc
:020000040000fa
:04034800d6030000d8
:020000040000fa
:04034c00d6030000d4
:020000040000fa
:04035000d6030000d0
:020000040000fa
:04035400d6030000cc
:020000040000fa
:04035800d6030000c8
:020000040000fa
:04035c00d6030000c4
:020000040000fa
:04036000d6030000c0
:020000040000fa
:04036400d6030000bc
:020000040000fa
:04036800d6030000b8
:020000040000fa
:04036c00d6030000b4
:020000040000fa
:04037000d6030000b0
:020000040000fa
:04037400d6030000ac
:020000040000fa
:04037800d6030000a8
:020000040000fa
:04037c00d6030000a4
:020000040000fa
:04038000d6030000a0
:020000040000fa
:04038400d60300009c
:020000040000fa
:04038800d603000098
:020000040000fa
:04038c00d603000094
:020000040000fa
:04039000d603000090
:020000040000fa
:04039400d60300008c
:020000040000fa
:04039800d603000088
:020000040000fa
:04039c00d603000084
:020000040000fa
:0403a000d603000080
:020000040000fa
:0403a400d60300007c
:020000040000fa
:0403a800d603000078
:020000040000fa
:0403ac00d603000074
:020000040000fa
:0403b000d603000070
:020000040000fa
:0403b400d60300006c
:020000040000fa
:0403b800d603000068
:020000040000fa
:0403bc00d603000064
:020000040000fa
:0403c000d603000060
:020000040000fa
:0403c400d60300005c
:020000040000fa
:0403c800d603000058
:020000040000fa
:0403cc00d603000054
:020000040000fa
:0403d000d603000050
:020000040000fa
:0403d400d60300004c
:020000040000fa
:0403d800d603000048
:020000040000fa
:0403dc00d603000044
:020000040000fa
:0403e000d603000040
:020000040000fa
:0403e400d60300003c
:020000040000fa
:0403e800d603000038
:020000040000fa
:0403ec00d603000034
:020000040000fa
:0403f000d603000030
:020000040000fa
:0403f400d60300002c
:020000040000fa
:0403f800d603000028
:020000040000fa
:0403fc00d603000024
:020000040000fa
:100400002f8420000e7f22000e01880000000000d3
:10041000000020000000e000020032000001200087
:100420002002880014000700e20007000000e0003e
:1004300003003a00006d2000010020000200370098
:100440000000200001002000810f70000100320038
:1004500014000700000020000000e000020032004d
:1004600000000200000000002e0802000000000052
:100470000040da000000fe004440a90020002000f7
:100480000000e0000300320010002000900188000e
:100490004440a800000006008a1f78008b1f7800e7
:1004a00000000600a1028800800478000000eb0034
:1004b0001f003700e284440054a0b4009905ba003c
:1004c000e284440054a0b4009906ba00e2844400d7
:1004d00054a0b4000006eb00476fde00fd07b20039
:1004e000ae018800636ce10003003a00eaff0700f8
:1004f0000000eb000e003700606ce10008003a00dd
:10050000004deb000a05e800020039003420ec0041
:100510000af0a0008b05e900f9ff3e000400370057
:100520006168e100010032000086eb000b0007006b
:1005300019c7ba001905ba000e04e00003003a001a
:100540000a00e000dbff3a0000000600fe07b200f0
:10055000ae0288008a047800f5ff37000cd0a300b3
:10056000e20f4d001c00390089027800354dba00b9
:100570000a05e800020039003420ec000af0a0006f
:100580008b05e9000f003200254dba000a05e8008e
:10059000020039003420ec000af0a0008b05e900cd
:1005a000080032000c00e0000600320015cdba0051
:1005b0000a05e800020039003420ec000af0a0002f
:1005c0008b05e9008984e80054a0b4000b00e0002a
:1005d000e2ff3a00000006009902ba00055d7800cb
:1005e0008b05e900f7ff3200c82ade00055d7800c0
:1005f0008b05e900f3ff32000c00e000f1ff320050
:1006000019ddba00eeff37003600f800809fbe000b
:10061000829fbe00849fbe00869fbe000000fa003d
:100620008c000700d0832000104078008040e80054
:10063000d083200001487800c083200011c0b3009f
:10064000014878008460a9000080fa004f03be00d2
:100650004f02be004f01be004f00be003600f90041
:1006600000400600801f78000000fa00300480007f
:10067000680060000000e0000a003200a040800036
:100680000000e000030032008521a9001428ef00db
:10069000030037008521a80010002000a04088003a
:1006a0008660a9000080fa004f0078000040060034
:1006b0003600f8008020a9000000eb00530207007c
:1006c0003600f800550207008040a9001000200005
:1006d0004e0207003600f8008060a90020002000cc
:1006e0004a0207003600f8008080a9003000200090
:1006f000460207003600f800809fbe00829fbe00c1
:10070000849fbe00869fbe000000fa00cf00070055
:10071000f0832000104078008040e800f083200043
:1007200001487800e083200011c0b3000148780040
:1007300084e0a9000080fa004f03be004f02be0013
:100740004f01be004f00be003600f9000040060019
:100750003600f800809fbe00829fbe00849fbe00ce
:10076000869fbe000000fa003601070010842000ba
:10077000104078008040e800108420000148780094
:100780000084200011c0b300014878008500a90052
:100790000080fa004f03be004f02be004f01be00b2
:1007a0004f00be003600f900004006000040da00ad
:0807b0000000fe00000005003e
:020000040000fa
:1007b8000000fa004c22ef00500020007012880060
:1007c80000022800801288008460a9009460a800b4
:1007d800c08320008040eb00014878000080fa00c8
:1007e800000006000200fa00000f78009e00780062
:1007f80071128800c08320008040eb000148780017
:100808000080fa00000006000000fa007012800064
:100818000080fa00000006000200fa00000f7800cd
:100828009e00780061128800c08320008040eb00a1
:10083800014878000080fa00000006000000fa0075
:10084800601280000080fa00000006000000fa0034
:10085800004080000000e00012003a0020408000c4
:100868000000e80020408800214080003006200079
:10087800808f50001a003400904080000000e8008b
:10088800904088009140800040382000808f5000c0
:100898000200340010002000004088000428ef0007
:1008a8000f003700204080000000e800204088004a
:1008b8002140800030062000808f5000080034005e
:1008c800904080000000e90090408800904080003f
:1008d800ea0f500001003c000028ef000428ef0058
:1008e8001140800090408000808f500005003d003e
:1008f80098e1a900104080000000e800104088003e
:100908000200370098e1a8000228ef000080fa00f2
:10091800000006000000fa00c08320008040eb00c1
:10092800014878009460a80051e2a8000080fa000d
:10093800000006000000fa0051e2a9009460a90036
:100948000080fa00000006000200fa00c0832000c0
:10095800104f78001e4078000004e00003003200c9
:10096800c08320008040eb00014878001e407800da
:100978000080fa00000006000000fa00d083200082
:10098800104078000080fb000080fa00000006009c
:100998000000fa00d08320008040eb000148780076
:1009a8000080fa00000006000000fa005222ef0062
:1009b80000142000c012880000002800e0128800ff
:1009c80084e0a90094e0a800e08320008040eb00c8
:1009d800014878000080fa00000006000200fa00d2
:1009e800000f78009e007800c1128800e083200084
:1009f8008040eb00014878000080fa000000060003
:100a08000000fa00c01280000080fa000000060012
:100a18000200fa00000f78009e007800911288000a
:100a2800e08320008040eb00014878000080fa0055
:100a3800000006000000fa00901280000080fa0012
:100a4800000006000000fa00304080000000e000ce
:100a580012003a00504080000000e8005040880032
:100a68005140800030062000808f50001a0034006a
:100a7800c04080000000e800c0408800c1408000fd
:100a8800c0442000808f5000020034001000200075
:100a9800304088000a28ef000f00370050408000df
:100aa8000000e800504088005140800030062000d7
:100ab800808f500008003400c04080000000e9002a
:100ac800c0408800c0408000ea0f500001003c0090
:100ad8000628ef000a28ef0041408000c04080004f
:100ae800808f500005003d0098c1a900404080005b
:100af8000000e800404088000200370098c1a800c4
:100b08000828ef000080fa00000006000000fa0044
:100b1800e08320008040eb000148780094e0a800c2
:100b28005de2a8000080fa00000006000000fa005c
:100b38005de2a90094e0a9000080fa000000060028
:100b48000200fa00e0832000104f78001e40780071
:100b58000004e00003003200e08320008040eb0046
:100b6800014878001e4078000080fa000000060066
:100b78000000fa00f0832000104078000080fb009d
:100b88000080fa00000006000000fa00f083200050
:100b98008040eb00014878000080fa000000060061
:100ba8000000fa005622ef0000142000d01288003e
:100bb80000002800f01288008500a9009500a80010
:100bc800008420008040eb00014878000080fa0093
:100bd800000006000200fa00000f78009e0078006e
:100be800d1128800008420008040eb000148780082
:100bf8000080fa00000006000000fa00d012800011
:100c08000080fa00000006000200fa00000f7800d9
:100c18009e007800b1128800008420008040eb001c
:100c2800014878000080fa00000006000000fa0081
:100c3800b01280000080fa00000006000000fa00f0
:100c4800604080000000e00012003a008040800010
:100c58000000e800804088008140800030062000c5
:100c6800808f50001a003400d04080000000e80057
:100c7800d0408800d1408000803e2000808f500006
:100c88000200340010002000604088001028ef00a7
:100c98000f003700804080000000e8008040880096
:100ca8008140800030062000808f5000080034000a
:100cb800d04080000000e900d0408800d04080008b
:100cc800ea0f500001003c000c28ef001028ef004c
:100cd80071408000d0408000808f500005003d00aa
:100ce80098a1a900704080000000e80070408800ca
:100cf8000200370098a1a8000e28ef000080fa0033
:100d0800000006000000fa00008420008040eb008c
:100d1800014878009500a8005fe2a8000080fa006a
:100d2800000006000000fa005fe2a9009500a90093
:100d38000080fa00000006000200fa00008420008b
:100d4800104f78001e4078000004e00003003200d5
:100d5800008420008040eb00014878001e407800a5
:100d68000080fa00000006000000fa00108420004d
:100d7800104078000080fb000080fa0000000600a8
:100d88000000fa00108420008040eb000148780041
:080d98000080fa0000000600d3
:020000040000fa
:100da0003c08000002000000800000000008000075
:100db0000600000080000000120800000200000091
:100dc000820000000a000000140800000200000079
:100dd000800000001c0800002000000080000000cf
:100de000160800000200000082000000ffff000063
:100df0003e0800000200000080000000060800001d
:100e0000060000008000000018080000020000003a
:100e1000820000000a0000004008000002000000fc
:100e2000800000000c0800000600000080000000a8
:100e30001a08000002000000820000000a00000002
:040e400000000000ae
:020000040000fa
:100e44000000fa008421ef008e21ef009821ef00ca
:100e540070192000000c88000080eb00500c880002
:100e6400f0312000a00c88005620ef005820ef003d
:100e74005a20ef006e20ef007020ef007220ef0088
:100e84008621ef009021ef009a21ef0070002000ee
:100e9400400c8800c0202f00900c880070002000b7
:100ea400e00c88006480a8006460a8009660a80034
:100eb4000080fa00000006000000fa000000230091
:100ec400100888000621ef006821ef006a21ef0076
:100ed4006c21ef001200200080072000a1092000ef
:100ee40013102000804978008149780082497800f5
:100ef400120020006004200071052000031020006f
:100f04008049780081497800824978000000000017
:100f140000088000610060000000e000fcff3a006f
:100f24000080fa00000006000000fa000000230020
:100f3400100888000621ef006821ef006a21ef0005
:100f44006c21ef001200200080072000a10920007e
:100f54001310200080497800814978008249780084
:100f640012002000600420007105200003102000fe
:100f740080497800814978008249780000000000a7
:100f840000088000610060000000e000fcff3a00ff
:100f94000080fa00000006000000fa0061058000ed
:100fa400f0ff28000080600000c0a00060058800f9
:100fb4004105800080ff2f00008060000000a00039
:100fc4004005880031058000f0ff280000806000a3
:100fd40000c0a000300588004105800080ff2f007c
:100fe400008060000000a00040058800210580000a
:100ff400f0ff28000080600000c0a00020058800e9
:101004000080fa0000000600000f78009e007800bf
:10101400b1408800ffff37000000fa00c0812000c3
:101024008007780040832000000188000080fa00d7
:10103400000006000000fa0081ff07009eff070081
:10104400d5ff0700d7fe070058fe0700d9fd0700ab
:101054000080fa00000006000000fa00f5ff070017
:1010640098a1a90098c1a90098e1a900ffff370041
:020000040000fa
:020000040002f8
:04aff000fff300006b
:020000040000fa
:020000040002f8
:04aff400fff6000064
:020000040000fa
:020000040002f8
:04aff8007fb0000026
:020000040000fa
:020000040002f8
:04affc003f3f0000d3
:00000001FF
